:020000040000FA
:10000000D80800206D020000810200008302000079
:10001000850200008502000085020000000000004B
:100020000000000000000000000000008502000049
:10003000850200000000000085020000850200002B
:100040008502000085020000850200008502000094
:100050008502000085020000850200008502000084
:100060008502000085020000850200008502000074
:100070008502000085020000850200008502000064
:100080008502000085020000850200008502000054
:100090008502000085020000850200008502000044
:1000A0008502000085020000850200008502000034
:1000B0008502000085020000850200008502000024
:1000C0008502000085020000850200008502000014
:1000D0008502000085020000850200008502000004
:1000E0008502000000000000000000008502000002
:1000F00085020000850200008502000085020000E4
:1001000085020000850200008502000085020000D3
:1001100000000000000000008502000085020000D1
:1001200085020000850200008502000085020000B3
:1001300085020000850200008502000085020000A3
:1001400000000000000000000000000000000000AF
:100150008502000085020000850200008502000083
:10016000000000000000000000000000000000008F
:10017000000000000000000000000000000000007F
:10018000000000000000000000000000000000006F
:10019000000000000000000000000000000000005F
:1001A000000000000000000000000000000000004F
:1001B0008502000085020000850200008502000023
:1001C0008502000085020000850200008502000013
:1001D0008502000085020000850200008502000003
:1001E000850200008502000085020000000000007A
:1001F000000000008502000085020000850200006A
:1002000085020000850200000000000000000000E0
:1002100085020000850200008502000085020000C2
:1002200085020000850200008502000085020000B2
:1002300085020000850200008502000085020000A2
:100240008502000085020000850200008502000092
:100250008502000085020000850200008502000082
:100260008502000085020000850200004EF68850DD
:10027000CEF20000016841F47001016000F004B8A2
:10028000FEE7FEE7FEE70000DFF80CD000F020F804
:100290000048004761160000D80800200138FDD151
:1002A000704730B50B46014600202022012409E0AA
:1002B00021FA02F59D4205D303FA02F5491B04FA1F
:1002C00002F52844151EA2F10102F1DC30BD000048
:1002D000064C074D06E0E06840F0010394E8070093
:1002E00098471034AC42F6D3FFF7D2FFE01F00006E
:1002F0000020000030B58C1810F8012B12F00F030D
:1003000001D110F8013B120906D110F8012B03E0CE
:1003100010F8015B01F8015B5B1EF9D101E001F807
:10032000013B521EFBD1A142E6D3002030BD826BBF
:1003300022F0030211438163704730B4446989009D
:100340004FF00F0C0CFA01FC02F00F0524EA0C042C
:100350008D402C434461046A03F0030324EA0C0C2F
:1003600003FA01F14CEA0101016202F00F018B1F57
:10037000032B84BF30BC7047C900C3694FF0300CF9
:1003800030390CFA01FC02F0300223EA0C0302FAC5
:1003900001F11943C16130BC70470268012303FABF
:1003A00001F122EA0101016070470268012303FAAA
:1003B00001F111430160704710B400EB411091004E
:1003C00050F840CF0F228A4003F00F042CEA020CB1
:1003D0008C404CEA040CC0F800C0D0F818C0C3F33D
:1003E00003242CEA020C8C404CEA040CC0F818C020
:1003F000D0F804C0C3F303142CEA020C8C404CEA7E
:10040000040CC0F804C0D0F81CC0C3F303542CEA99
:10041000020C8C404CEA040CC0F81CC013F4702F82
:100420004FF001040DD0D0F814C0C3F302432CEAFE
:1004300002028B401A434261026904FA01F111433E
:1004400004E0026904FA01F122EA0101016110BC31
:1004500070470000B1FBF2F3B1FBF3FC70B49445BC
:1004600088BF5B1CB3F5984F27D81322B3FBF2FC6F
:100470000CFB02F49C4219D1114B03EB420333F8FD
:10048000085C03689BB243F041040460ACF10104D2
:1004900004F03F063543C560C4F3831484610360F0
:1004A0000CFB02F0B1FBF0F070BC7047521E042A46
:1004B000DCD25B1CB3F5984FD7D970BC00207047D5
:1004C000C4170000016821F001010160704701219B
:1004D0000160016A11F4004FFBD1B021416200219B
:1004E000416381630121026A12F4004FFBD1016272
:1004F000491C2029F7D90C2141620121026A12F41A
:10050000004FFBD10162491C2029F7D94068704790
:10051000B1F5004F04BF40687047026A12F4004F03
:10052000FBD10822426201F03F010162016A11F42D
:10053000004FFBD170470268114301607047000013
:100540002DE9F041254E0021304600F0A1F8044687
:10055000014623A000F020FF284DB4F5004F27D01E
:10056000002764B3072C2AD821463046FFF7D0FF76
:100570002F70234904EB840001EB80020023214605
:100580003046143A00F094F81D481D49E03800EB5D
:10059000C400A83901EB840110F8082D01F8042DDE
:1005A00042784A7082788A70C078C870BDE8F0815D
:1005B0000021304600F0ECF901202870F6E7A4F1A4
:1005C0000800062805D821463046FFF7A1FF2F7006
:1005D000ECE7BDE8F0410BA000F0DEBE00000440F7
:1005E000496E74657272757074207374617475737A
:1005F0002069643A2025640A000000000000002001
:100600004C070020556E65787065637465642043FF
:10061000414E2062757320696E74657272757074D4
:100620000A0000002DE9F041154A00241368DFF8A4
:1006300054C0164D03EA0C06134BA6F18057B7F5CC
:10064000A02708D0126802EA0C02A2F1805CBCF577
:10065000202C06D00CE0984209D0A84208BF3824CC
:1006600006E0984208BF362402D0A84200D13724C1
:10067000204600F033FC2046BDE8F04100F0FCBB12
:1006800000E00F400000FF70000004400010044034
:10069000002904BF0069704701291CBF0020704772
:1006A000D0F84011D0F8440189B241EA00407047C7
:1006B0002DE9F0014FF0730C002B18BF4FF07B0CAD
:1006C000C0F884C001F03F06C0F88060D0F8801008
:1006D00011F4004FFAD1D0F888108DB2D0F88C10F8
:1006E0001FFA81FCD0F890108CB2D0F894108BB225
:1006F000D0F89810002789B211F4807F03F40058D5
:10070000976003D0B8F1000F03D006E0B8F1000FF6
:1007100003D04FF04008C2F8088013F4804F04BFA4
:10072000C3F38A04146008D0C3F30C0844EA0844F5
:100730001460946844F00404946011F4804F03D072
:10074000946844F48074946011F4805F2DD013F4A5
:10075000804F0DD0CCF30C0345EA03436FF06044A7
:100760005360A3420FD1137A13F0400F0FD10AE068
:10077000CCF38A03A3F5E0645360FF3C03D1137A02
:1007800013F0400F03D1936843F0080393601CF407
:10079000004F03D0936843F0280393601CF4804F0C
:1007A00003D0936843F01803936011F4006F03D0F3
:1007B000936843F00103936011F4806F03D0936852
:1007C00043F00203936011F4004F02BFD760BDE80D
:1007D000F001704701F00F0CC2F80CC0117A11F053
:1007E000400F11D10021156900F19C03BCF1000FED
:1007F0000AD953F8044B6C54491C8C4502D9240A7D
:100800006C54491C6145F4D30421C0F88410C0F82D
:100810008060D0F8801011F4004FFAD1906840F059
:1008200080009060BDE8F00170472DE9FF4F4FF068
:10083000000A016A11F4004FFBD1D2F80090B9F51B
:10084000006F06D2117A11F0040F08BF4FF0000BB1
:1008500001D04FF0010B00274FF093083D46394679
:100860003E46BC46052B24BF04B0BDE8F08FDFE850
:1008700003F003071A0A14004FF480714D0110E0D1
:100880004FF480710FE04FF4005569104FF6FF767A
:1008900041F6FF7C4FF0D30805E04FF400554FF4CC
:1008A00090514FF0010A946841F6FF7314F0080F5D
:1008B0000CD0BBF1000F08BF0026D2F804C00EBF59
:1008C00003EA8C0C1FFA8CF6CCF30C4C4FF0280E7C
:1008D0003EEA040E08BF4CF4004C4FF0180E3EEAFE
:1008E000040E08BF4CF4804C14F0380F1CBF41F4C8
:1008F000805148F0400848F02008BBF1000F07D0B5
:10090000C9F30C431FFA89F72B4343F4404904E031
:1009100003EA89032B4343F40049D56805F00F032C
:100920000B4314F4007F08BF43F0800314F0010F61
:1009300018BF43F4006314F0020F18BF43F4806340
:10094000BAF1000F14D00021D2F810A000F13C043D
:10095000002D0DD91AF80120491C8D4204D91AF82E
:1009600001B0491C42EA0B2244F8042BA942F1D3FE
:10097000C0F824808662C0F82CC00763C0F83490A9
:100980008363019901F03F01016204B0BDE8F08F7B
:10099000C1B1012904BFD0F80011D0F8040116D06C
:1009A000022904BFD0F82011D0F824010FD0032968
:1009B00011BF0021D0F86011D0F8640141EA004174
:1009C0000846704741686FF01F024260F8E741EA4D
:1009D0000041F5E710B51B4800F02AFC1A4800F06A
:1009E00071F91A4800F06EF93021194800F09AF9AF
:1009F000184800F01DFC18A000F0CEFC1D4C20464D
:100A0000FFF765FD00F0DAFA01461B4A2046FFF7C2
:100A100021FD1AA000F0C0FC23492046FFF702FE8A
:100A20000E212046FFF787FD372000F025FA2046EB
:100A3000FFF748FD1DA000F0AFFCBDE8104000F03E
:100A4000B3B90000040800F0081004000814040002
:100A500000400240003400F0496E697469616C69BD
:100A60007A696E672043414E305F424153452E2ED6
:100A70002E0A00000000044020A107005365747492
:100A8000696E672043414E20426974526174653A31
:100A900020302E35204D65676162797465732F7340
:100AA00065632E2E2E0A00004105000043414E20B2
:100AB000496E697469616C697A65642E0A0A00007E
:100AC0007CB5144E02780D467468227043786370CA
:100AD0008178A170C078E070CDE9001029460E48F9
:100AE00000F05AFC0D4905EB850001EB8002002364
:100AF000E91D0B48143AFFF798FE0AA000F04CFCE1
:100B00003078002804D0BDE87C400AA000F044BC46
:100B10007CBD0000000000209C1F0000C0060020DB
:100B2000000004404D6573736167652073656E74E2
:100B30002E0A000043414E20427573204572726FA9
:100B4000720A000010B5054800F0E2FA00F09AFBC6
:100B5000BDE81040024800F09CBB0000403D80070B
:100B60000024F400D0F8003412F0010F14BF0B433E
:100B70008B43C0F8003412F0020FD0F8202414BFC9
:100B8000114322EA0101C0F8201470472DE9F00357
:100B900001264FF0000C0325C2F3411706FA0CF4AE
:100BA0000C4211D0D0F8C48F4FEA4C0405FA04F976
:100BB00028EA0908C0F8C48FD0F8C48F07FA04F4F3
:100BC00048EA0404C0F8C44F0CF1010C0CF0FF0C0F
:100BD000BCF1080FE2D3D0F800C512F0010F14BF2A
:100BE0004CEA010C2CEA010CC0F800C5D0F804C591
:100BF00012F0020F14BF4CEA010C2CEA010CC0F8F1
:100C000004C5D0F808C512F0040F14BF4CEA010C5B
:100C10002CEA010CC0F808C5D0F818C512F0080F6E
:100C200014BF4CEA010C2CEA010CC0F818C512F0F4
:100C3000100FD0F83C2514BF0A438A43C0F83C2566
:100C4000D0F80C2513F0010F14BF0A438A43C0F8F3
:100C50000C25D0F8102513F0020F14BF0A438A4365
:100C6000C0F81025D0F8142513F0040F14BF0A4360
:100C70008A43C0F81425D0F81C2513F0080F14BFC0
:100C80000A438A43C0F81C25D0F8442513F4007F9A
:100C900014BF0A438A43C0F84425D0F8402513F412
:100CA000407F14BF0A438A43C0F84025D0F8282566
:100CB000002B0CBF114322EA0101C0F82815BDE842
:100CC000F00370470E4AC0F30741D26E01238B40F8
:100CD0001A420C4A1ABF02EBC101496852F831109E
:100CE000020AD1F82C354FF00F0C0CFA02FC00F080
:100CF0000F0023EA0C0390401843C1F82C057047FD
:100D000000E00F407C19000030B50C46054600227B
:100D1000FFF728FF21462846BDE830400023012286
:100D2000FFF734BF30B50C4605460222FFF71AFF25
:100D300021462846BDE8304008236622FFF726BF3B
:100D400030B50C46054608230122FFF71FFF214658
:100D50002846BDE830400122FFF704BF30B50C46FD
:100D600005460222FFF7FEFE21462846BDE8304038
:100D700008230122FFF70ABF10B5094800F058FA0E
:100D8000084C02212046FFF7DBFF04212046FFF735
:100D9000D7FF2046BDE810400821FFF7D1BF000073
:100DA000050800F000500240F0B531480123002151
:100DB000C0E9003104242F4AC0E9023452680225F8
:100DC000C0E9042500F11806032786E81A00C0E9E7
:100DD00009271436826386E81A00C0E90F41C0E98A
:100DE00011344FF0050CC0E9132C28364FF0060ED5
:100DF00086E81A00C0E9182E683007261AC0E0E815
:100E0000052640F80C29082280E81A0018488C3082
:100E1000C0E90031A0F1E0030361C0E90252C0E97A
:100E20000551C0E907520833C0E90937C0E90B157D
:100E300000F13407083387E81C00C0E9101500F101
:100E40004804083384E80C10C0E91515143408333D
:100E500084E80C400833C0E91A15143484E84C00C7
:100E6000C0E91F15A0F1B001C0E92121F0BD0000CB
:100E7000C0060020000000201649042804BF0868AE
:100E800040F4803018D0052804BF086840F40030D2
:100E900012D0062812D00F2815D0102838BF70475E
:100EA000103800F01F01012202FA01F142090A483C
:100EB00050F822000160704708607047086840F4ED
:100EC0008020086070474FF0E020016941F0020186
:100ED0000161704724ED00E0C81A000030B40A4DEB
:100EE0002A680A4B9A421CBFD5F800C0002207D0DE
:100EF0005CF8224043F82240521C9B2AF8D32B6016
:100F000043F8201030BC704708ED00E000040020DA
:100F100010B500F04DF8244C204600F089F9204629
:100F200000F09AF90028FAD0204C01212046FFF762
:100F3000FEF900212046FFF730FA00231A46194631
:100F40002046FFF7FAF900231A4619462046FFF714
:100F500033FA01231A4600212046FFF72DFA022317
:100F60001A4600212046FFF727FA04230322002116
:100F70002046FFF721FA0523042200212046FFF72F
:100F80001BFA0623052200212046FFF715FA272326
:100F9000062200212046FFF70FFA2046BDE8104048
:100FA0000021FFF702BA0000003800F00080034083
:100FB0000E210148FFF7A8BE0040024070B44B4D1F
:100FC0002A6E296F11F0004F14BF01F0700002F07B
:100FD0003000202808BF464818D005DC88B110280A
:100FE00008BF444812D009E0302808BF47F230500B
:100FF0000CD0702808BF4FF4004007D070BC002010
:1010000070477C203C4B00EA121018584FF0FF3319
:1010100011F0004F02D011F4006F06D001F0004C27
:1010200002F400645CEA040C36D1D5F860C1D5F84E
:10103000644104F01F06C4F30424641C761C16FBF0
:1010400004F46400B0FBF4F0CCF309044443CCF3A3
:10105000892C00FB0CF0D5F810C004EB902042F472
:1010600080020CF4704CBCF5804F08BF234B13D0AA
:1010700009DCBCF5005F08BF214B0DD0BCF5405F1B
:1010800008BF204B08E0BCF5E04F08BF1E4B03D063
:10109000BCF5104F08BF1D4B12F4800F21D011F08A
:1010A000004F19D011F0804F09D011F4006F0CD00F
:1010B00001F0004C02F400625CEA020205D0C1F3C8
:1010C000C551491CB0FBF1F00BE04000C1F3865163
:1010D000491CB0FBF1F004E0C2F3C351491CB0FB62
:1010E000F1F0834238BF184670BC704700E00F40F3
:1010F00000093D000024F400201B0000005A620299
:1011000000B4C40480F0FA0240787D01002D310162
:10111000434B30B4196E1A6F21F4800141F4006121
:1011200042F4006419661C6721EA000212F0010F04
:1011300014D060F0010211409A159A651966D3F82F
:1011400050C0D2021CF4807F08D1521E04BF30BCB4
:101150007047D3F850C01CF4807FF6D021F4FE61B4
:1011600000F4FE621143DFF8BCC024F0700222F0EC
:10117000004200EA0C0C4CEA020200F0080C42EAC1
:10118000CC0219661A6700F4005C21F4005122F4C5
:1011900000524CEA01014CEA02024FF0400CC3F845
:1011A00058C012F0004F08BF19661A6718BF1966B9
:1011B00021F00101DFF870C021F0F86100EA0C0CA9
:1011C0004CEA010122F0FC5200F0FC5C4CEA020205
:1011D00010F0804F08BF22F0804209D0DFF84CC0E9
:1011E00022F4800200EA0C0C41F480014CEA020275
:1011F00010F4006F08BF4FF400400AD1D3F868C163
:101200001CF0010F01D1401EF8D121F4006122F43D
:10121000006219661A6730BC1020FFF73FB8000063
:1012200000E00F40300000800100C0070000404097
:10123000C0F307230749C0B2194401F07043C1F35A
:10124000130143EA411141EA800040F0007001229D
:101250000260704700E60F40C0F307220849C0B2A1
:10126000114401F07042C1F3130142EA411141EA15
:10127000800040F000700068002818BF012070470F
:1012800000EA0F404FF0E020016941F005010161E3
:1012900070474FF0E021401E48617047D0F818C0F9
:1012A0001CF0080FFAD1D0F82CC02CF0100CC0F8AC
:1012B0002CC0D0F830C02CF0010C2CF4407CC0F8CD
:1012C00030C0D0F830C0B1EB021F34BF4CF0200C5E
:1012D0002CF0200CC0F830C038BF5208C900B1FB58
:1012E000F2F1491C49088A09426201F03F0181621A
:1012F000C36200218161C16A41F01001C162016BCA
:1013000040F20132114301637047000003488169D4
:10131000C906FCD40068C0B27047000000C000409D
:1013200002498A699206FCD40860704700C00040F8
:1013300010B5154C2046FFF77BFF2046FFF78CFFCA
:101340000028FAD01148FFF773FF0120FFF7BAFC1D
:1013500040F20140FFF7B6FC4FF040240221204646
:10136000FFF7FCFC03212046FFF7F8FC0848FFF7D5
:10137000CFFEFFF723FE0146BDE8104060234FF487
:1013800016420448FFF78ABF001800F0000800F07A
:10139000403D800700C000400FB4054B10B503A9C5
:1013A000044A029800F018F810BC5DF814FB000025
:1013B000C91500001000002002E008C8121F08C173
:1013C000002AFAD170477047002001E001C1121FC6
:1013D000002AFBD1704700002DE9FF4F89B09B46E2
:1013E0000446002506E025280BD05A460B99904765
:1013F000641C6D1C20780028F5D10DB02846BDE88E
:10140000F08F0027B8460122474900E0074314F84F
:10141000013F203B02FA03F00842F7D120782E2842
:1014200019D114F8010F47F004072A280ED06FF0E5
:101430002F022078A0F1300109290CD808EB88018F
:1014400002EB410100EB0108641CF2E70A98641CFE
:1014500050F8048B0A9020780028CED0642808D059
:10146000692806D075281ED05A460B9990476D1CE6
:1014700058E00A994FF00A0901C90A91002802DAD6
:1014800040422D2102E0390504D52B218DF8201092
:10149000012103E0F90704D02021F7E78A4608AECE
:1014A0000DE00021FAE70A994FF00A0901C90A91F3
:1014B000F7E74946FEF7F5FE303106F8011D002832
:1014C000F7D1ADEB060000F12009780701D44FF009
:1014D0000108C84502DDA8EB090000E000208046B5
:1014E000002706E008A85A46C05D0B9990476D1C7E
:1014F0007F1C5745F6DB04E030205A460B99904795
:101500006D1CB8F10001A8F10108F5DC05E016F842
:10151000010B5A460B9990476D1CB9F10001A9F1D6
:101520000109F4DC641C65E70928010038B51D4C8D
:10153000E0780090A378627821781B48FFF72CFFB1
:10154000E0790090A379627921791848FFF724FFA8
:10155000E07A0090A37A627A217A1548FFF71CFF9F
:10156000E07B0090A37B627B217B1248FFF714FF96
:10157000E07C0090A37C627C217C0F48FFF70CFF8D
:10158000E07D0090A37D627D217D0C48FFF704FF84
:10159000E07E0090A37E627E217E0948FFF7FCFE7C
:1015A00038BD0000A40600206C1D0000BC1D00001A
:1015B0000C1E00005C1E0000AC1E0000FC1E0000A3
:1015C0004C1F0000FFF7A2BE00B50A2808D00D2866
:1015D00006D01B2804D0C0B2FFF7A2FE012000BD38
:1015E0000D20FFF79DFE0A20F6E7FFF7EBBF000096
:1015F00010B51A4C0223184A01212046FFF715F9AD
:10160000154A0223143219462046FFF70EF9124AF2
:101610000223283203212046FFF707F90E4A02234E
:101620003C3204212046FFF700F90B4A02235032D6
:1016300005212046FFF7F9F8074A02236432062104
:101640002046FFF7F2F8044A204602237832BDE82C
:1016500010400721FFF7E9B84C07002000000440C4
:1016600000F00AF8FFF7AAFC0321B0FBF1F0FEF747
:1016700015FE00F055F8000010B5FFF763FAFFF70C
:101680007BFBFFF755FEFFF7A5F9FFF741FC07A02D
:10169000FFF782FE0EA0FFF77FFE14A0FFF77CFE8F
:1016A000BDE8104019A0FFF777BE000044656275E1
:1016B0006767696E6720696E74657266616365202D
:1016C000696E697469616C697A65642E2E2E0A00F0
:1016D0004750494F20706F72747320696E69746946
:1016E000616C697A65642E2E2E0A0000436C6F636C
:1016F0006B2073657474696E677320696E697469B1
:10170000616C697A65642E2E2E0A0A005365742D69
:10171000757020436F6D706C6574652E0A0A000049
:1017200008B5FFF765FF0026802513A0FFF734FEFC
:101730001E48FFF75AFF10F0FF0401D1FFF7F6FE35
:10174000601E0628F1D88DF800608DF801608DF8D4
:1017500002508DF8035016A0FFF71EFE2146684682
:10176000FFF7AEF98DF800608DF801508DF802603A
:101770008DF80350D9E70000456E74657220312D55
:101780003720746F2073656E642061206D657373FC
:101790006167652C206F72203020746F206469733C
:1017A000706C617920646174612E0A000C00002065
:1017B00073656E64696E67206D6573736167650A32
:1017C000000000000001000240124013802380242A
:1017D000C034C035C045C046C056C057C067C06899
:1017E000C078C07900400040100000000080054033
:1017F0001000000000500040110000000090054063
:1018000011000000006000401200000000A0054030
:1018100012000000007000401300000000B00540FE
:1018200013000000004002401400000000C005400A
:1018300014000000005002402E00000000D00540BF
:101840002E000000006002402F00000000E0054074
:101850002F000000007002403000000000F0054042
:101860003000000000D003404600000000000640A9
:10187000460000000010064047000000002006401F
:1018800048000000003006407F0000000040064095
:101890008000000000500640840000000060064008
:1018A0008C00000000400040100000000080054057
:1018B00010000000005000401100000000900540A2
:1018C00011000000006000401200000000A0054070
:1018D00012000000007000401300000000B005403E
:1018E00013000000004002401400000000C005404A
:1018F00014000000005002402E00000000D00540FF
:101900002E000000006002402F00000000E00540B3
:101910002F000000007002403000000000F0054081
:101920003000000000D003404300000000000640EB
:101930004300000000100640440000000020064064
:1019400045000000003006405800000000400640FE
:1019500059000000005006405C0000000060064096
:1019600064000000007006406C000000008006402B
:101970006D000000009006407F0000000040004025
:10198000008005400050004000900540006000408D
:1019900000A005400070004000B00540004002403B
:1019A00000C005400050024000D0054000600240E9
:1019B00000E005400070024000F0054000D0034008
:1019C00000000640001006400010064000200640BF
:1019D000002006400030064000300640004006402F
:1019E000004006400050064000500640006006409F
:1019F000006006400070064000700640008006400F
:101A0000008006400090064000900640000700005D
:101A100000060000000500000004000000030000B4
:101A200000020000000100000000000000000000B3
:101A300018ED00E01CED00E020ED00E000E400E027
:101A400004E400E008E400E00CE400E010E400E05E
:101A500014E400E018E400E01CE400E020E400E00E
:101A600024E400E028E400E02CE400E030E400E0BE
:101A700034E400E038E400E03CE400E040E400E06E
:101A800044E400E048E400E04CE400E050E400E01E
:101A900054E400E058E400E05CE400E060E400E0CE
:101AA00064E400E068E400E06CE400E070E400E07E
:101AB00074E400E078E400E07CE400E080E400E02E
:101AC00084E400E088E400E000E100E004E100E0FC
:101AD00008E100E00CE100E010E100E080E100E05E
:101AE00084E100E088E100E08CE100E090E100E0CA
:101AF00000E200E004E200E008E200E00CE200E0C6
:101B000010E200E080E200E084E200E088E200E031
:101B10008CE200E090E200E000688909001C4E0EB3
:101B200040420F0000201C0080841E000080250021
:101B3000999E36000040380000093D0000803E00BC
:101B400000004B00404B4C0000204E00808D5B009D
:101B500000C05D000080700000127A0000007D006F
:101B600080969800001BB7000080BB00C0E8CE0044
:101B7000647ADA000024F4000000FA0080A8120160
:101B8000002D310100366E0140787D0140000000DB
:101B900000000000000100003E00080000000000FE
:101BA00000010000A0000000020000000001000091
:101BB0003454010000000000000100002B700600FA
:101BC00000000000000100002800000000000000EC
:101BD00000010000270001000000000000010000DB
:101BE0002000000000000000000100005000000084
:101BF00002000000000100001AAC0000000000001C
:101C0000000100001794090000000000000100001E
:101C100016980500000000000001000014000000FC
:101C20000000000000010000138008000000000018
:101C300000010000A00000000800000000010000FA
:101C4000100000000000000000010000280000005B
:101C5000020000000001000040000000040000003D
:101C60000001000060000000000000000001000012
:101C70005D000C00000000000001000050000000AA
:101C800000000000000100004E0002000000000003
:101C90000001000041AC0100000000000001000054
:101CA0003C00000000000000000100003A80090034
:101CB00000000000000100003000000000000000F3
:101CC00000010000280000000000000000010000EA
:101CD0002700010000000000000100002360060052
:101CE000000000000001000021600800000000006A
:101CF000000100001E0000000000000000010000C4
:101D00001DC00400000000000001000050000000A1
:101D100002000000000100001800000000000000A8
:101D2000000100001400000000000000000100009D
:101D30006000000004000000000100000024F40026
:101D400030003000005A6202910091000087930336
:101D5000D200D20000B4C4041301130100E1F50560
:101D600054015401000E2707950195014D736744F6
:101D70006174615B305D20726563656976656420BE
:101D80006D65737361676520313A09427974652026
:101D9000313A202564094279746520323A2025645D
:101DA000094279746520333A202564092042797408
:101DB0006520343A2025640A000000004D73674412
:101DC0006174615B315D207265636569766564206D
:101DD0006D65737361676520313A094279746520D6
:101DE000313A202564094279746520323A2025640D
:101DF000094279746520333A2025640920427974B8
:101E00006520343A2025640A000000004D736744C1
:101E10006174615B325D207265636569766564201B
:101E20006D65737361676520313A09427974652085
:101E3000313A202564094279746520323A202564BC
:101E4000094279746520333A202564092042797467
:101E50006520343A2025640A000000004D73674471
:101E60006174615B335D20726563656976656420CA
:101E70006D65737361676520313A09427974652035
:101E8000313A202564094279746520323A2025646C
:101E9000094279746520333A202564092042797417
:101EA0006520343A2025640A000000004D73674421
:101EB0006174615B345D2072656365697665642079
:101EC0006D65737361676520313A094279746520E5
:101ED000313A202564094279746520323A2025641C
:101EE000094279746520333A2025640920427974C7
:101EF0006520343A2025640A000000004D736744D1
:101F00006174615B355D2072656365697665642027
:101F10006D65737361676520313A09427974652094
:101F2000313A202564094279746520323A202564CB
:101F3000094279746520333A202564092042797476
:101F40006520343A2025640A000000004D73674480
:101F50006174615B365D20726563656976656420D6
:101F60006D65737361676520313A09427974652044
:101F7000313A202564094279746520323A2025647B
:101F8000094279746520333A202564092042797426
:101F90006520343A2025640A0000000053656E6411
:101FA000696E67206D6573736167652025643A0902
:101FB0004279746520313A2025640942797465209C
:101FC000323A202564094279746520333A20256429
:101FD00009204279746520343A2025640A00000003
:101FE00000200000000000206C060000F402000049
:101FF000142000006C0600206C020000C8130000D2
:1020000051320802FF2001FF01FF01FF01FF01FF24
:04201000017100005A
:040000050000026D88
:00000001FF
